{"abi":[{"type":"constructor","inputs":[],"stateMutability":"nonpayable"},{"type":"function","name":"allPolls","inputs":[{"name":"","type":"uint256","internalType":"uint256"}],"outputs":[{"name":"","type":"uint256","internalType":"uint256"}],"stateMutability":"view"},{"type":"function","name":"castVote","inputs":[{"name":"pollId","type":"uint256","internalType":"uint256"},{"name":"voteData","type":"bytes","internalType":"bytes"}],"outputs":[{"name":"voteId","type":"uint256","internalType":"uint256"}],"stateMutability":"nonpayable"},{"type":"function","name":"createPoll","inputs":[{"name":"pollData","type":"bytes","internalType":"bytes"}],"outputs":[{"name":"pollId","type":"uint256","internalType":"uint256"}],"stateMutability":"nonpayable"},{"type":"function","name":"getAllPolls","inputs":[],"outputs":[{"name":"","type":"uint256[]","internalType":"uint256[]"}],"stateMutability":"view"},{"type":"function","name":"getOwnedPolls","inputs":[{"name":"pollOwner","type":"address","internalType":"address"}],"outputs":[{"name":"pollIds","type":"uint256[]","internalType":"uint256[]"}],"stateMutability":"view"},{"type":"function","name":"getPoll","inputs":[{"name":"pollId","type":"uint256","internalType":"uint256"}],"outputs":[{"name":"pollData","type":"bytes","internalType":"bytes"}],"stateMutability":"view"},{"type":"function","name":"getVote","inputs":[{"name":"pollId","type":"uint256","internalType":"uint256"},{"name":"voteId","type":"uint256","internalType":"uint256"}],"outputs":[{"name":"voteData","type":"bytes","internalType":"bytes"}],"stateMutability":"view"},{"type":"function","name":"getVoterPolls","inputs":[{"name":"voter","type":"address","internalType":"address"}],"outputs":[{"name":"pollIds","type":"uint256[]","internalType":"uint256[]"}],"stateMutability":"view"},{"type":"function","name":"hasVoted","inputs":[{"name":"","type":"uint256","internalType":"uint256"},{"name":"","type":"address","internalType":"address"}],"outputs":[{"name":"","type":"bool","internalType":"bool"}],"stateMutability":"view"},{"type":"function","name":"isWhitelisted","inputs":[{"name":"pollId","type":"uint256","internalType":"uint256"},{"name":"user","type":"address","internalType":"address"}],"outputs":[{"name":"","type":"bool","internalType":"bool"}],"stateMutability":"view"},{"type":"function","name":"nextPollId","inputs":[],"outputs":[{"name":"","type":"uint256","internalType":"uint256"}],"stateMutability":"view"},{"type":"function","name":"owner","inputs":[],"outputs":[{"name":"","type":"address","internalType":"address"}],"stateMutability":"view"},{"type":"function","name":"pollOwnerList","inputs":[{"name":"","type":"address","internalType":"address"},{"name":"","type":"uint256","internalType":"uint256"}],"outputs":[{"name":"","type":"uint256","internalType":"uint256"}],"stateMutability":"view"},{"type":"function","name":"pollVoteCount","inputs":[{"name":"","type":"uint256","internalType":"uint256"}],"outputs":[{"name":"","type":"uint256","internalType":"uint256"}],"stateMutability":"view"},{"type":"function","name":"pollVotes","inputs":[{"name":"","type":"uint256","internalType":"uint256"},{"name":"","type":"uint256","internalType":"uint256"}],"outputs":[{"name":"voter","type":"address","internalType":"address"},{"name":"data","type":"bytes","internalType":"bytes"}],"stateMutability":"view"},{"type":"function","name":"polls","inputs":[{"name":"","type":"uint256","internalType":"uint256"}],"outputs":[{"name":"creator","type":"address","internalType":"address"},{"name":"data","type":"bytes","internalType":"bytes"}],"stateMutability":"view"},{"type":"function","name":"registerToVote","inputs":[{"name":"pollId","type":"uint256","internalType":"uint256"},{"name":"","type":"bytes","internalType":"bytes"}],"outputs":[],"stateMutability":"nonpayable"},{"type":"function","name":"removeWhitelisted","inputs":[{"name":"pollId","type":"uint256","internalType":"uint256"},{"name":"user","type":"address","internalType":"address"}],"outputs":[],"stateMutability":"nonpayable"},{"type":"function","name":"voterPollList","inputs":[{"name":"","type":"address","internalType":"address"},{"name":"","type":"uint256","internalType":"uint256"}],"outputs":[{"name":"","type":"uint256","internalType":"uint256"}],"stateMutability":"view"},{"type":"function","name":"whitelist","inputs":[{"name":"","type":"uint256","internalType":"uint256"},{"name":"","type":"address","internalType":"address"}],"outputs":[{"name":"","type":"bool","internalType":"bool"}],"stateMutability":"view"},{"type":"function","name":"whitelistUser","inputs":[{"name":"pollId","type":"uint256","internalType":"uint256"},{"name":"user","type":"address","internalType":"address"}],"outputs":[],"stateMutability":"nonpayable"},{"type":"function","name":"whitelistUsers","inputs":[{"name":"pollId","type":"uint256","internalType":"uint256"},{"name":"users","type":"address[]","internalType":"address[]"}],"outputs":[],"stateMutability":"nonpayable"},{"type":"event","name":"PollCreated","inputs":[{"name":"pollId","type":"uint256","indexed":false,"internalType":"uint256"},{"name":"creator","type":"address","indexed":false,"internalType":"address"}],"anonymous":false},{"type":"event","name":"UserRemovedFromWhitelist","inputs":[{"name":"pollId","type":"uint256","indexed":false,"internalType":"uint256"},{"name":"user","type":"address","indexed":false,"internalType":"address"}],"anonymous":false},{"type":"event","name":"UserWhitelisted","inputs":[{"name":"pollId","type":"uint256","indexed":false,"internalType":"uint256"},{"name":"user","type":"address","indexed":false,"internalType":"address"}],"anonymous":false},{"type":"event","name":"VoteCast","inputs":[{"name":"pollId","type":"uint256","indexed":false,"internalType":"uint256"},{"name":"voteId","type":"uint256","indexed":false,"internalType":"uint256"}],"anonymous":false}],"bytecode":{"object":"0x6080604052600180553480156012575f5ffd5b50335f5f6101000a81548173ffffffffffffffffffffffffffffffffffffffff021916908373ffffffffffffffffffffffffffffffffffffffff16021790555061200f8061005f5f395ff3fe608060405234801561000f575f5ffd5b5060043610610140575f3560e01c80637d22c35c116100b6578063ac2f00741161007a578063ac2f0074146103e7578063b62acce714610418578063bda4869e14610448578063d160e2d214610464578063da396cbe14610480578063dcf2ae38146104b057610140565b80637d22c35c1461031c5780638da5cb5b1461034c578063934df0e11461036a5780639da9d73f1461039b578063a8da7f25146103b757610140565b80634aadb3fe116101085780634aadb3fe146102105780634b25bfce1461022c5780634d2942ab1461025c57806361981b681461028c578063637cd874146102bc5780636d01cda3146102ec57610140565b80631a8cbcaa146101445780632b7865711461017457806332b633fa1461019257806343859632146101b057806349330cb8146101e0575b5f5ffd5b61015e6004803603810190610159919061148f565b6104e0565b60405161016b919061152a565b60405180910390f35b61017c610584565b6040516101899190611559565b60405180910390f35b61019a61058a565b6040516101a79190611629565b60405180910390f35b6101ca60048036038101906101c591906116a3565b6105e0565b6040516101d791906116fb565b60405180910390f35b6101fa60048036038101906101f59190611714565b61060a565b604051610207919061152a565b60405180910390f35b61022a600480360381019061022591906117b3565b6106be565b005b610246600480360381019061024191906116a3565b6106c3565b60405161025391906116fb565b60405180910390f35b61027660048036038101906102719190611810565b6106ed565b6040516102839190611559565b60405180910390f35b6102a660048036038101906102a1919061148f565b6108d9565b6040516102b39190611559565b60405180910390f35b6102d660048036038101906102d1919061148f565b6108ee565b6040516102e39190611559565b60405180910390f35b6103066004803603810190610301919061185b565b61090e565b6040516103139190611629565b60405180910390f35b610336600480360381019061033191906116a3565b6109a1565b60405161034391906116fb565b60405180910390f35b610354610a03565b6040516103619190611895565b60405180910390f35b610384600480360381019061037f9190611714565b610a27565b6040516103929291906118ae565b60405180910390f35b6103b560048036038101906103b091906116a3565b610af7565b005b6103d160048036038101906103cc91906117b3565b610c3a565b6040516103de9190611559565b60405180910390f35b61040160048036038101906103fc919061148f565b610fb4565b60405161040f9291906118ae565b60405180910390f35b610432600480360381019061042d91906118dc565b611079565b60405161043f9190611559565b60405180910390f35b610462600480360381019061045d91906116a3565b6110a4565b005b61047e6004803603810190610479919061196f565b6111e6565b005b61049a600480360381019061049591906118dc565b611396565b6040516104a79190611559565b60405180910390f35b6104ca60048036038101906104c5919061185b565b6113c1565b6040516104d79190611629565b60405180910390f35b606060025f8381526020019081526020015f206001018054610501906119f9565b80601f016020809104026020016040519081016040528092919081815260200182805461052d906119f9565b80156105785780601f1061054f57610100808354040283529160200191610578565b820191905f5260205f20905b81548152906001019060200180831161055b57829003601f168201915b50505050509050919050565b60015481565b606060078054806020026020016040519081016040528092919081815260200182805480156105d657602002820191905f5260205f20905b8154815260200190600101908083116105c2575b5050505050905090565b6009602052815f5260405f20602052805f5260405f205f915091509054906101000a900460ff1681565b606060055f8481526020019081526020015f205f8381526020019081526020015f20600101805461063a906119f9565b80601f0160208091040260200160405190810160405280929190818152602001828054610666906119f9565b80156106b15780601f10610688576101008083540402835291602001916106b1565b820191905f5260205f20905b81548152906001019060200180831161069457829003601f168201915b5050505050905092915050565b505050565b6008602052815f5260405f20602052805f5260405f205f915091509054906101000a900460ff1681565b5f5f60015f81548092919061070190611a56565b91905055905033428260405160200161071c93929190611b02565b604051602081830303815290604052805190602001205f1c915060405180604001604052803373ffffffffffffffffffffffffffffffffffffffff16815260200185858080601f0160208091040260200160405190810160405280939291908181526020018383808284375f81840152601f19601f8201169050808301925050505050505081525060025f8481526020019081526020015f205f820151815f015f6101000a81548173ffffffffffffffffffffffffffffffffffffffff021916908373ffffffffffffffffffffffffffffffffffffffff160217905550602082015181600101908161080e9190611d0b565b5090505060035f3373ffffffffffffffffffffffffffffffffffffffff1673ffffffffffffffffffffffffffffffffffffffff1681526020019081526020015f2082908060018154018082558091505060019003905f5260205f20015f9091909190915055600782908060018154018082558091505060019003905f5260205f20015f90919091909150557fb447d309fd3b1a27466cdb08ccc02ee5188e9c71fc58af042bafe3e0bb45123082336040516108ca929190611dda565b60405180910390a15092915050565b6006602052805f5260405f205f915090505481565b600781815481106108fd575f80fd5b905f5260205f20015f915090505481565b606060035f8373ffffffffffffffffffffffffffffffffffffffff1673ffffffffffffffffffffffffffffffffffffffff1681526020019081526020015f2080548060200260200160405190810160405280929190818152602001828054801561099557602002820191905f5260205f20905b815481526020019060010190808311610981575b50505050509050919050565b5f60085f8481526020019081526020015f205f8373ffffffffffffffffffffffffffffffffffffffff1673ffffffffffffffffffffffffffffffffffffffff1681526020019081526020015f205f9054906101000a900460ff16905092915050565b5f5f9054906101000a900473ffffffffffffffffffffffffffffffffffffffff1681565b6005602052815f5260405f20602052805f5260405f205f9150915050805f015f9054906101000a900473ffffffffffffffffffffffffffffffffffffffff1690806001018054610a76906119f9565b80601f0160208091040260200160405190810160405280929190818152602001828054610aa2906119f9565b8015610aed5780601f10610ac457610100808354040283529160200191610aed565b820191905f5260205f20905b815481529060010190602001808311610ad057829003601f168201915b5050505050905082565b813373ffffffffffffffffffffffffffffffffffffffff1660025f8381526020019081526020015f205f015f9054906101000a900473ffffffffffffffffffffffffffffffffffffffff1673ffffffffffffffffffffffffffffffffffffffff1614610b98576040517f08c379a0000000000000000000000000000000000000000000000000000000008152600401610b8f90611e5b565b60405180910390fd5b600160085f8581526020019081526020015f205f8473ffffffffffffffffffffffffffffffffffffffff1673ffffffffffffffffffffffffffffffffffffffff1681526020019081526020015f205f6101000a81548160ff0219169083151502179055507fef35c6815799b054cdc749d1f5bb07547c285ef9d7559c6e839da576f42b49098383604051610c2d929190611dda565b60405180910390a1505050565b5f60085f8581526020019081526020015f205f3373ffffffffffffffffffffffffffffffffffffffff1673ffffffffffffffffffffffffffffffffffffffff1681526020019081526020015f205f9054906101000a900460ff16610cd3576040517f08c379a0000000000000000000000000000000000000000000000000000000008152600401610cca90611ec3565b60405180910390fd5b60095f8581526020019081526020015f205f3373ffffffffffffffffffffffffffffffffffffffff1673ffffffffffffffffffffffffffffffffffffffff1681526020019081526020015f205f9054906101000a900460ff1615610d6c576040517f08c379a0000000000000000000000000000000000000000000000000000000008152600401610d6390611f2b565b60405180910390fd5b600160095f8681526020019081526020015f205f3373ffffffffffffffffffffffffffffffffffffffff1673ffffffffffffffffffffffffffffffffffffffff1681526020019081526020015f205f6101000a81548160ff0219169083151502179055505f60065f8681526020019081526020015f205f815480929190610df290611a56565b919050559050423382604051602001610e0d93929190611f49565b604051602081830303815290604052805190602001205f1c915060405180604001604052803373ffffffffffffffffffffffffffffffffffffffff16815260200185858080601f0160208091040260200160405190810160405280939291908181526020018383808284375f81840152601f19601f8201169050808301925050505050505081525060055f8781526020019081526020015f205f8481526020019081526020015f205f820151815f015f6101000a81548173ffffffffffffffffffffffffffffffffffffffff021916908373ffffffffffffffffffffffffffffffffffffffff1602179055506020820151816001019081610f0e9190611d0b565b5090505060045f3373ffffffffffffffffffffffffffffffffffffffff1673ffffffffffffffffffffffffffffffffffffffff1681526020019081526020015f2085908060018154018082558091505060019003905f5260205f20015f90919091909150557fc31875ef3ed5138b71a0c1da7e494bc4d2ba4f567084ea481ec9c45f3a93948b8583604051610fa4929190611f85565b60405180910390a1509392505050565b6002602052805f5260405f205f91509050805f015f9054906101000a900473ffffffffffffffffffffffffffffffffffffffff1690806001018054610ff8906119f9565b80601f0160208091040260200160405190810160405280929190818152602001828054611024906119f9565b801561106f5780601f106110465761010080835404028352916020019161106f565b820191905f5260205f20905b81548152906001019060200180831161105257829003601f168201915b5050505050905082565b6004602052815f5260405f208181548110611092575f80fd5b905f5260205f20015f91509150505481565b813373ffffffffffffffffffffffffffffffffffffffff1660025f8381526020019081526020015f205f015f9054906101000a900473ffffffffffffffffffffffffffffffffffffffff1673ffffffffffffffffffffffffffffffffffffffff1614611145576040517f08c379a000000000000000000000000000000000000000000000000000000000815260040161113c90611e5b565b60405180910390fd5b5f60085f8581526020019081526020015f205f8473ffffffffffffffffffffffffffffffffffffffff1673ffffffffffffffffffffffffffffffffffffffff1681526020019081526020015f205f6101000a81548160ff0219169083151502179055507ff2fa00d30329a682bdc16e23b7a89c83d4b290f4fa8f3f2306aa438a13480dc683836040516111d9929190611dda565b60405180910390a1505050565b823373ffffffffffffffffffffffffffffffffffffffff1660025f8381526020019081526020015f205f015f9054906101000a900473ffffffffffffffffffffffffffffffffffffffff1673ffffffffffffffffffffffffffffffffffffffff1614611287576040517f08c379a000000000000000000000000000000000000000000000000000000000815260040161127e90611e5b565b60405180910390fd5b5f5f90505b8383905081101561138f57600160085f8781526020019081526020015f205f8686858181106112be576112bd611fac565b5b90506020020160208101906112d3919061185b565b73ffffffffffffffffffffffffffffffffffffffff1673ffffffffffffffffffffffffffffffffffffffff1681526020019081526020015f205f6101000a81548160ff0219169083151502179055507fef35c6815799b054cdc749d1f5bb07547c285ef9d7559c6e839da576f42b49098585858481811061135757611356611fac565b5b905060200201602081019061136c919061185b565b60405161137a929190611dda565b60405180910390a1808060010191505061128c565b5050505050565b6003602052815f5260405f2081815481106113af575f80fd5b905f5260205f20015f91509150505481565b606060045f8373ffffffffffffffffffffffffffffffffffffffff1673ffffffffffffffffffffffffffffffffffffffff1681526020019081526020015f2080548060200260200160405190810160405280929190818152602001828054801561144857602002820191905f5260205f20905b815481526020019060010190808311611434575b50505050509050919050565b5f5ffd5b5f5ffd5b5f819050919050565b61146e8161145c565b8114611478575f5ffd5b50565b5f8135905061148981611465565b92915050565b5f602082840312156114a4576114a3611454565b5b5f6114b18482850161147b565b91505092915050565b5f81519050919050565b5f82825260208201905092915050565b8281835e5f83830152505050565b5f601f19601f8301169050919050565b5f6114fc826114ba565b61150681856114c4565b93506115168185602086016114d4565b61151f816114e2565b840191505092915050565b5f6020820190508181035f83015261154281846114f2565b905092915050565b6115538161145c565b82525050565b5f60208201905061156c5f83018461154a565b92915050565b5f81519050919050565b5f82825260208201905092915050565b5f819050602082019050919050565b6115a48161145c565b82525050565b5f6115b5838361159b565b60208301905092915050565b5f602082019050919050565b5f6115d782611572565b6115e1818561157c565b93506115ec8361158c565b805f5b8381101561161c57815161160388826115aa565b975061160e836115c1565b9250506001810190506115ef565b5085935050505092915050565b5f6020820190508181035f83015261164181846115cd565b905092915050565b5f73ffffffffffffffffffffffffffffffffffffffff82169050919050565b5f61167282611649565b9050919050565b61168281611668565b811461168c575f5ffd5b50565b5f8135905061169d81611679565b92915050565b5f5f604083850312156116b9576116b8611454565b5b5f6116c68582860161147b565b92505060206116d78582860161168f565b9150509250929050565b5f8115159050919050565b6116f5816116e1565b82525050565b5f60208201905061170e5f8301846116ec565b92915050565b5f5f6040838503121561172a57611729611454565b5b5f6117378582860161147b565b92505060206117488582860161147b565b9150509250929050565b5f5ffd5b5f5ffd5b5f5ffd5b5f5f83601f84011261177357611772611752565b5b8235905067ffffffffffffffff8111156117905761178f611756565b5b6020830191508360018202830111156117ac576117ab61175a565b5b9250929050565b5f5f5f604084860312156117ca576117c9611454565b5b5f6117d78682870161147b565b935050602084013567ffffffffffffffff8111156117f8576117f7611458565b5b6118048682870161175e565b92509250509250925092565b5f5f6020838503121561182657611825611454565b5b5f83013567ffffffffffffffff81111561184357611842611458565b5b61184f8582860161175e565b92509250509250929050565b5f602082840312156118705761186f611454565b5b5f61187d8482850161168f565b91505092915050565b61188f81611668565b82525050565b5f6020820190506118a85f830184611886565b92915050565b5f6040820190506118c15f830185611886565b81810360208301526118d381846114f2565b90509392505050565b5f5f604083850312156118f2576118f1611454565b5b5f6118ff8582860161168f565b92505060206119108582860161147b565b9150509250929050565b5f5f83601f84011261192f5761192e611752565b5b8235905067ffffffffffffffff81111561194c5761194b611756565b5b6020830191508360208202830111156119685761196761175a565b5b9250929050565b5f5f5f6040848603121561198657611985611454565b5b5f6119938682870161147b565b935050602084013567ffffffffffffffff8111156119b4576119b3611458565b5b6119c08682870161191a565b92509250509250925092565b7f4e487b71000000000000000000000000000000000000000000000000000000005f52602260045260245ffd5b5f6002820490506001821680611a1057607f821691505b602082108103611a2357611a226119cc565b5b50919050565b7f4e487b71000000000000000000000000000000000000000000000000000000005f52601160045260245ffd5b5f611a608261145c565b91507fffffffffffffffffffffffffffffffffffffffffffffffffffffffffffffffff8203611a9257611a91611a29565b5b600182019050919050565b5f8160601b9050919050565b5f611ab382611a9d565b9050919050565b5f611ac482611aa9565b9050919050565b611adc611ad782611668565b611aba565b82525050565b5f819050919050565b611afc611af78261145c565b611ae2565b82525050565b5f611b0d8286611acb565b601482019150611b1d8285611aeb565b602082019150611b2d8284611aeb565b602082019150819050949350505050565b7f4e487b71000000000000000000000000000000000000000000000000000000005f52604160045260245ffd5b5f819050815f5260205f209050919050565b5f6020601f8301049050919050565b5f82821b905092915050565b5f60088302611bc77fffffffffffffffffffffffffffffffffffffffffffffffffffffffffffffffff82611b8c565b611bd18683611b8c565b95508019841693508086168417925050509392505050565b5f819050919050565b5f611c0c611c07611c028461145c565b611be9565b61145c565b9050919050565b5f819050919050565b611c2583611bf2565b611c39611c3182611c13565b848454611b98565b825550505050565b5f5f905090565b611c50611c41565b611c5b818484611c1c565b505050565b5b81811015611c7e57611c735f82611c48565b600181019050611c61565b5050565b601f821115611cc357611c9481611b6b565b611c9d84611b7d565b81016020851015611cac578190505b611cc0611cb885611b7d565b830182611c60565b50505b505050565b5f82821c905092915050565b5f611ce35f1984600802611cc8565b1980831691505092915050565b5f611cfb8383611cd4565b9150826002028217905092915050565b611d14826114ba565b67ffffffffffffffff811115611d2d57611d2c611b3e565b5b611d3782546119f9565b611d42828285611c82565b5f60209050601f831160018114611d73575f8415611d61578287015190505b611d6b8582611cf0565b865550611dd2565b601f198416611d8186611b6b565b5f5b82811015611da857848901518255600182019150602085019450602081019050611d83565b86831015611dc55784890151611dc1601f891682611cd4565b8355505b6001600288020188555050505b505050505050565b5f604082019050611ded5f83018561154a565b611dfa6020830184611886565b9392505050565b5f82825260208201905092915050565b7f4e6f7420706f6c6c2063726561746f72000000000000000000000000000000005f82015250565b5f611e45601083611e01565b9150611e5082611e11565b602082019050919050565b5f6020820190508181035f830152611e7281611e39565b9050919050565b7f4e6f742077686974656c697374656400000000000000000000000000000000005f82015250565b5f611ead600f83611e01565b9150611eb882611e79565b602082019050919050565b5f6020820190508181035f830152611eda81611ea1565b9050919050565b7f416c726561647920766f746564000000000000000000000000000000000000005f82015250565b5f611f15600d83611e01565b9150611f2082611ee1565b602082019050919050565b5f6020820190508181035f830152611f4281611f09565b9050919050565b5f611f548286611aeb565b602082019150611f648285611acb565b601482019150611f748284611aeb565b602082019150819050949350505050565b5f604082019050611f985f83018561154a565b611fa5602083018461154a565b9392505050565b7f4e487b71000000000000000000000000000000000000000000000000000000005f52603260045260245ffdfea2646970667358221220575ae75cd57fafd11c5f91436632ab90751d6caa0ef669eb928ee8f4961db4e564736f6c634300081c0033","linkReferences":{}},"methodIdentifiers":{"allPolls(uint256)":"637cd874","castVote(uint256,bytes)":"a8da7f25","createPoll(bytes)":"4d2942ab","getAllPolls()":"32b633fa","getOwnedPolls(address)":"6d01cda3","getPoll(uint256)":"1a8cbcaa","getVote(uint256,uint256)":"49330cb8","getVoterPolls(address)":"dcf2ae38","hasVoted(uint256,address)":"43859632","isWhitelisted(uint256,address)":"7d22c35c","nextPollId()":"2b786571","owner()":"8da5cb5b","pollOwnerList(address,uint256)":"da396cbe","pollVoteCount(uint256)":"61981b68","pollVotes(uint256,uint256)":"934df0e1","polls(uint256)":"ac2f0074","registerToVote(uint256,bytes)":"4aadb3fe","removeWhitelisted(uint256,address)":"bda4869e","voterPollList(address,uint256)":"b62acce7","whitelist(uint256,address)":"4b25bfce","whitelistUser(uint256,address)":"9da9d73f","whitelistUsers(uint256,address[])":"d160e2d2"},"id":0}